{
  "_format": "hh-sol-artifact-1",
  "contractName": "ECRegistry",
  "sourceName": "contracts/ECRegistry.sol",
  "abi": [
    {
      "anonymous": false,
      "inputs": [
        {
          "indexed": true,
          "internalType": "address",
          "name": "previousOwner",
          "type": "address"
        },
        {
          "indexed": true,
          "internalType": "address",
          "name": "newOwner",
          "type": "address"
        }
      ],
      "name": "OwnershipTransferred",
      "type": "event"
    },
    {
      "anonymous": false,
      "inputs": [
        {
          "indexed": true,
          "internalType": "address",
          "name": "_address",
          "type": "address"
        },
        {
          "indexed": true,
          "internalType": "bool",
          "name": "mode",
          "type": "bool"
        }
      ],
      "name": "contractControllerEvent",
      "type": "event"
    },
    {
      "anonymous": false,
      "inputs": [
        {
          "indexed": true,
          "internalType": "string",
          "name": "_name",
          "type": "string"
        },
        {
          "indexed": true,
          "internalType": "address",
          "name": "_address",
          "type": "address"
        }
      ],
      "name": "newTraitEvent",
      "type": "event"
    },
    {
      "anonymous": false,
      "inputs": [
        {
          "indexed": true,
          "internalType": "uint16",
          "name": "_traitId",
          "type": "uint16"
        },
        {
          "indexed": true,
          "internalType": "uint16",
          "name": "_tokenId",
          "type": "uint16"
        },
        {
          "indexed": true,
          "internalType": "bool",
          "name": "mode",
          "type": "bool"
        }
      ],
      "name": "tokenTraitChangeEvent",
      "type": "event"
    },
    {
      "anonymous": false,
      "inputs": [
        {
          "indexed": true,
          "internalType": "uint16",
          "name": "_id",
          "type": "uint16"
        },
        {
          "indexed": true,
          "internalType": "string",
          "name": "_name",
          "type": "string"
        },
        {
          "indexed": true,
          "internalType": "address",
          "name": "_address",
          "type": "address"
        }
      ],
      "name": "updateTraitEvent",
      "type": "event"
    },
    {
      "inputs": [
        {
          "internalType": "string[]",
          "name": "_name",
          "type": "string[]"
        },
        {
          "internalType": "address[]",
          "name": "_implementer",
          "type": "address[]"
        }
      ],
      "name": "addTrait",
      "outputs": [],
      "stateMutability": "nonpayable",
      "type": "function"
    },
    {
      "inputs": [
        {
          "internalType": "address",
          "name": "_addr",
          "type": "address"
        },
        {
          "internalType": "uint16",
          "name": "traitID",
          "type": "uint16"
        }
      ],
      "name": "addressCanModifyTrait",
      "outputs": [
        {
          "internalType": "bool",
          "name": "result",
          "type": "bool"
        }
      ],
      "stateMutability": "view",
      "type": "function"
    },
    {
      "inputs": [
        {
          "internalType": "address",
          "name": "_addr",
          "type": "address"
        },
        {
          "internalType": "uint16[]",
          "name": "traitIDs",
          "type": "uint16[]"
        }
      ],
      "name": "addressCanModifyTraits",
      "outputs": [
        {
          "internalType": "bool",
          "name": "result",
          "type": "bool"
        }
      ],
      "stateMutability": "view",
      "type": "function"
    },
    {
      "inputs": [
        {
          "internalType": "address",
          "name": "",
          "type": "address"
        }
      ],
      "name": "contractController",
      "outputs": [
        {
          "internalType": "bool",
          "name": "",
          "type": "bool"
        }
      ],
      "stateMutability": "view",
      "type": "function"
    },
    {
      "inputs": [
        {
          "internalType": "uint16",
          "name": "traitID",
          "type": "uint16"
        }
      ],
      "name": "getByteAndBit",
      "outputs": [
        {
          "internalType": "uint16",
          "name": "_byte",
          "type": "uint16"
        },
        {
          "internalType": "uint8",
          "name": "_bit",
          "type": "uint8"
        }
      ],
      "stateMutability": "pure",
      "type": "function"
    },
    {
      "inputs": [
        {
          "internalType": "uint16",
          "name": "tokenId",
          "type": "uint16"
        }
      ],
      "name": "getData",
      "outputs": [
        {
          "internalType": "uint8[]",
          "name": "",
          "type": "uint8[]"
        }
      ],
      "stateMutability": "view",
      "type": "function"
    },
    {
      "inputs": [
        {
          "internalType": "uint16",
          "name": "traitID",
          "type": "uint16"
        }
      ],
      "name": "getImplementer",
      "outputs": [
        {
          "internalType": "address",
          "name": "implementer",
          "type": "address"
        }
      ],
      "stateMutability": "view",
      "type": "function"
    },
    {
      "inputs": [
        {
          "internalType": "uint16",
          "name": "traitID",
          "type": "uint16"
        },
        {
          "internalType": "uint16",
          "name": "tokenId",
          "type": "uint16"
        }
      ],
      "name": "hasTrait",
      "outputs": [
        {
          "internalType": "bool",
          "name": "result",
          "type": "bool"
        }
      ],
      "stateMutability": "view",
      "type": "function"
    },
    {
      "inputs": [],
      "name": "owner",
      "outputs": [
        {
          "internalType": "address",
          "name": "",
          "type": "address"
        }
      ],
      "stateMutability": "view",
      "type": "function"
    },
    {
      "inputs": [],
      "name": "renounceOwnership",
      "outputs": [],
      "stateMutability": "nonpayable",
      "type": "function"
    },
    {
      "inputs": [
        {
          "internalType": "address",
          "name": "_controller",
          "type": "address"
        },
        {
          "internalType": "bool",
          "name": "_mode",
          "type": "bool"
        }
      ],
      "name": "setContractController",
      "outputs": [],
      "stateMutability": "nonpayable",
      "type": "function"
    },
    {
      "inputs": [
        {
          "internalType": "uint16[]",
          "name": "tokenIds",
          "type": "uint16[]"
        },
        {
          "internalType": "uint8[][]",
          "name": "_b",
          "type": "uint8[][]"
        }
      ],
      "name": "setData",
      "outputs": [],
      "stateMutability": "nonpayable",
      "type": "function"
    },
    {
      "inputs": [
        {
          "internalType": "uint16",
          "name": "traitID",
          "type": "uint16"
        },
        {
          "internalType": "uint16",
          "name": "tokenId",
          "type": "uint16"
        },
        {
          "internalType": "bool",
          "name": "_value",
          "type": "bool"
        }
      ],
      "name": "setTrait",
      "outputs": [],
      "stateMutability": "nonpayable",
      "type": "function"
    },
    {
      "inputs": [
        {
          "internalType": "address",
          "name": "_addr",
          "type": "address"
        },
        {
          "internalType": "uint16",
          "name": "traitID",
          "type": "uint16"
        },
        {
          "internalType": "bool",
          "name": "_value",
          "type": "bool"
        }
      ],
      "name": "setTraitControllerAccess",
      "outputs": [],
      "stateMutability": "nonpayable",
      "type": "function"
    },
    {
      "inputs": [
        {
          "internalType": "address[]",
          "name": "_addr",
          "type": "address[]"
        },
        {
          "internalType": "uint8[][]",
          "name": "_b",
          "type": "uint8[][]"
        }
      ],
      "name": "setTraitControllerAccessData",
      "outputs": [],
      "stateMutability": "nonpayable",
      "type": "function"
    },
    {
      "inputs": [
        {
          "internalType": "uint16",
          "name": "traitID",
          "type": "uint16"
        },
        {
          "internalType": "uint16[]",
          "name": "tokenIds",
          "type": "uint16[]"
        },
        {
          "internalType": "bool[]",
          "name": "_value",
          "type": "bool[]"
        }
      ],
      "name": "setTraitOnMultiple",
      "outputs": [],
      "stateMutability": "nonpayable",
      "type": "function"
    },
    {
      "inputs": [
        {
          "internalType": "uint16",
          "name": "",
          "type": "uint16"
        },
        {
          "internalType": "uint256",
          "name": "",
          "type": "uint256"
        }
      ],
      "name": "tokenData",
      "outputs": [
        {
          "internalType": "uint8",
          "name": "",
          "type": "uint8"
        }
      ],
      "stateMutability": "view",
      "type": "function"
    },
    {
      "inputs": [
        {
          "internalType": "address",
          "name": "",
          "type": "address"
        },
        {
          "internalType": "uint256",
          "name": "",
          "type": "uint256"
        }
      ],
      "name": "traitControllerAccess",
      "outputs": [
        {
          "internalType": "uint8",
          "name": "",
          "type": "uint8"
        }
      ],
      "stateMutability": "view",
      "type": "function"
    },
    {
      "inputs": [],
      "name": "traitCount",
      "outputs": [
        {
          "internalType": "uint16",
          "name": "",
          "type": "uint16"
        }
      ],
      "stateMutability": "view",
      "type": "function"
    },
    {
      "inputs": [
        {
          "internalType": "uint16",
          "name": "",
          "type": "uint16"
        }
      ],
      "name": "traits",
      "outputs": [
        {
          "internalType": "string",
          "name": "name",
          "type": "string"
        },
        {
          "internalType": "address",
          "name": "implementer",
          "type": "address"
        }
      ],
      "stateMutability": "view",
      "type": "function"
    },
    {
      "inputs": [
        {
          "internalType": "address",
          "name": "newOwner",
          "type": "address"
        }
      ],
      "name": "transferOwnership",
      "outputs": [],
      "stateMutability": "nonpayable",
      "type": "function"
    },
    {
      "inputs": [
        {
          "internalType": "uint16",
          "name": "_traitId",
          "type": "uint16"
        },
        {
          "internalType": "string",
          "name": "_name",
          "type": "string"
        },
        {
          "internalType": "address",
          "name": "_implementer",
          "type": "address"
        }
      ],
      "name": "updateTrait",
      "outputs": [],
      "stateMutability": "nonpayable",
      "type": "function"
    }
  ],
  "bytecode": "0x608060405234801561001057600080fd5b5060006100216100c460201b60201c565b9050806000806101000a81548173ffffffffffffffffffffffffffffffffffffffff021916908373ffffffffffffffffffffffffffffffffffffffff1602179055508073ffffffffffffffffffffffffffffffffffffffff16600073ffffffffffffffffffffffffffffffffffffffff167f8be0079c531659141344cd1fd0a4f28419497f9722a3daafe3b4186f6b6457e060405160405180910390a3506100cc565b600033905090565b612eea80620000dc6000396000f3fe608060405234801561001057600080fd5b50600436106101425760003560e01c8063811cffbd116100b85780639f2eeaff1161007c5780639f2eeaff1461039b578063c805923a146103cb578063c9e317d6146103e7578063ecff11b614610417578063ef89dd1514610433578063f2fde38b1461044f57610142565b8063811cffbd146102e3578063839ae78714610313578063868e50b21461032f5780638da5cb5b1461035f578063988556921461037d57610142565b806347bf9fcf1161010a57806347bf9fcf14610210578063549f8b4d1461024157806367528ab61461025d578063715018a614610279578063753792b5146102835780637f823303146102b357610142565b806301db44691461014757806303159f5414610177578063201b1cc8146101935780634356d5b0146101c35780634513fd05146101f4575b600080fd5b610161600480360381019061015c91906126db565b61046b565b60405161016e9190612a73565b60405180910390f35b610191600480360381019061018c919061266f565b6104b3565b005b6101ad60048036038101906101a891906124d0565b6105fc565b6040516101ba9190612ab0565b60405180910390f35b6101dd60048036038101906101d891906126db565b61070c565b6040516101eb929190612b56565b60405180910390f35b61020e60048036038101906102099190612783565b61072d565b005b61022a600480360381019061022591906126db565b6109af565b604051610238929190612acb565b60405180910390f35b61025b60048036038101906102569190612597565b610a8b565b005b61027760048036038101906102729190612603565b610bf8565b005b610281610ebb565b005b61029d600480360381019061029891906126db565b611028565b6040516102aa9190612a8e565b60405180910390f35b6102cd60048036038101906102c89190612417565b6110c1565b6040516102da9190612ab0565b60405180910390f35b6102fd60048036038101906102f89190612440565b6110e1565b60405161030a9190612ab0565b60405180910390f35b61032d6004803603810190610328919061250c565b611141565b005b61034960048036038101906103449190612875565b61146e565b6040516103569190612b7f565b60405180910390f35b6103676114b1565b6040516103749190612a73565b60405180910390f35b6103856114da565b6040516103929190612b3b565b60405180910390f35b6103b560048036038101906103b0919061255b565b6114ee565b6040516103c29190612b7f565b60405180910390f35b6103e560048036038101906103e09190612494565b611531565b005b61040160048036038101906103fc91906127ea565b611681565b60405161040e9190612ab0565b60405180910390f35b610431600480360381019061042c9190612826565b611749565b005b61044d60048036038101906104489190612704565b6119fd565b005b61046960048036038101906104649190612417565b611d1a565b005b6000600160008361ffff1661ffff16815260200190815260200160002060010160009054906101000a900473ffffffffffffffffffffffffffffffffffffffff169050919050565b6104bb6114b1565b73ffffffffffffffffffffffffffffffffffffffff163373ffffffffffffffffffffffffffffffffffffffff16148061053d5750600360003373ffffffffffffffffffffffffffffffffffffffff1673ffffffffffffffffffffffffffffffffffffffff16815260200190815260200160002060009054906101000a900460ff165b61057c576040517f08c379a000000000000000000000000000000000000000000000000000000000815260040161057390612afb565b60405180910390fd5b60005b82518161ffff1610156105f757818161ffff168151811061059c57fe5b602002602001015160026000858461ffff16815181106105b857fe5b602002602001015161ffff1661ffff16815260200190815260200160002090805190602001906105e9929190611f14565b50808060010191505061057f565b505050565b600080600061060a8461070c565b915091506000600460008773ffffffffffffffffffffffffffffffffffffffff1673ffffffffffffffffffffffffffffffffffffffff1681526020019081526020016000208054905090508061ffff166000148061066f57508261ffff168161ffff16105b156106805760009350505050610706565b60008260ff1660020a600102600460008973ffffffffffffffffffffffffffffffffffffffff1673ffffffffffffffffffffffffffffffffffffffff1681526020019081526020016000208561ffff16815481106106da57fe5b90600052602060002090602091828204019190069054906101000a900460ff1660ff1616141593505050505b92915050565b60008060088361ffff168161071d57fe5b0491506008820283039050915091565b6107356114b1565b73ffffffffffffffffffffffffffffffffffffffff163373ffffffffffffffffffffffffffffffffffffffff1614806107b75750600360003373ffffffffffffffffffffffffffffffffffffffff1673ffffffffffffffffffffffffffffffffffffffff16815260200190815260200160002060009054906101000a900460ff165b6107f6576040517f08c379a00000000000000000000000000000000000000000000000000000000081526004016107ed90612afb565b60405180910390fd5b600073ffffffffffffffffffffffffffffffffffffffff168173ffffffffffffffffffffffffffffffffffffffff161415610866576040517f08c379a000000000000000000000000000000000000000000000000000000000815260040161085d90612b1b565b60405180910390fd5b6108b0600160008561ffff1661ffff16815260200190815260200160002060010160009054906101000a900473ffffffffffffffffffffffffffffffffffffffff16846000611141565b81600160008561ffff1661ffff16815260200190815260200160002060000190805190602001906108e2929190611fbb565b5080600160008561ffff1661ffff16815260200190815260200160002060010160006101000a81548173ffffffffffffffffffffffffffffffffffffffff021916908373ffffffffffffffffffffffffffffffffffffffff16021790555061094c81846001611141565b8073ffffffffffffffffffffffffffffffffffffffff16826040516109719190612a5c565b60405180910390208461ffff167f6ee289005559aa0062eec269145ba6a557f2598eb79a01766045022ab9f4618760405160405180910390a4505050565b6001602052806000526040600020600091509050806000018054600181600116156101000203166002900480601f016020809104026020016040519081016040528092919081815260200182805460018160011615610100020316600290048015610a5b5780601f10610a3057610100808354040283529160200191610a5b565b820191906000526020600020905b815481529060010190602001808311610a3e57829003601f168201915b5050505050908060010160009054906101000a900473ffffffffffffffffffffffffffffffffffffffff16905082565b610a936114b1565b73ffffffffffffffffffffffffffffffffffffffff163373ffffffffffffffffffffffffffffffffffffffff161480610b155750600360003373ffffffffffffffffffffffffffffffffffffffff1673ffffffffffffffffffffffffffffffffffffffff16815260200190815260200160002060009054906101000a900460ff165b610b54576040517f08c379a0000000000000000000000000000000000000000000000000000000008152600401610b4b90612afb565b60405180910390fd5b60005b82518161ffff161015610bf357818161ffff1681518110610b7457fe5b602002602001015160046000858461ffff1681518110610b9057fe5b602002602001015173ffffffffffffffffffffffffffffffffffffffff1673ffffffffffffffffffffffffffffffffffffffff1681526020019081526020016000209080519060200190610be5929190611f14565b508080600101915050610b57565b505050565b610c006114b1565b73ffffffffffffffffffffffffffffffffffffffff163373ffffffffffffffffffffffffffffffffffffffff161480610c825750600360003373ffffffffffffffffffffffffffffffffffffffff1673ffffffffffffffffffffffffffffffffffffffff16815260200190815260200160002060009054906101000a900460ff165b610cc1576040517f08c379a0000000000000000000000000000000000000000000000000000000008152600401610cb890612afb565b60405180910390fd5b60005b82518161ffff161015610eb657600080601481819054906101000a900461ffff168092919060010191906101000a81548161ffff021916908361ffff16021790555090506000600160008361ffff1661ffff1681526020019081526020016000209050848361ffff1681518110610d3757fe5b6020026020010151816000019080519060200190610d56929190611fbb565b50838361ffff1681518110610d6757fe5b60200260200101518160010160006101000a81548173ffffffffffffffffffffffffffffffffffffffff021916908373ffffffffffffffffffffffffffffffffffffffff160217905550838361ffff1681518110610dc157fe5b602002602001015173ffffffffffffffffffffffffffffffffffffffff16858461ffff1681518110610def57fe5b6020026020010151604051610e049190612a5c565b60405180910390207f96c3c9ebd4f2b6c16d14d2a7bfcf436bacd223feb0a3a4b1346dda9ddcbe1f8e60405160405180910390a3600073ffffffffffffffffffffffffffffffffffffffff16848461ffff1681518110610e6057fe5b602002602001015173ffffffffffffffffffffffffffffffffffffffff1614610ea757610ea6848461ffff1681518110610e9657fe5b6020026020010151836001611141565b5b50508080600101915050610cc4565b505050565b610ec3611f0c565b73ffffffffffffffffffffffffffffffffffffffff16610ee16114b1565b73ffffffffffffffffffffffffffffffffffffffff1614610f6a576040517f08c379a00000000000000000000000000000000000000000000000000000000081526004018080602001828103825260208152602001807f4f776e61626c653a2063616c6c6572206973206e6f7420746865206f776e657281525060200191505060405180910390fd5b600073ffffffffffffffffffffffffffffffffffffffff1660008054906101000a900473ffffffffffffffffffffffffffffffffffffffff1673ffffffffffffffffffffffffffffffffffffffff167f8be0079c531659141344cd1fd0a4f28419497f9722a3daafe3b4186f6b6457e060405160405180910390a360008060006101000a81548173ffffffffffffffffffffffffffffffffffffffff021916908373ffffffffffffffffffffffffffffffffffffffff160217905550565b6060600260008361ffff1661ffff1681526020019081526020016000208054806020026020016040519081016040528092919081815260200182805480156110b557602002820191906000526020600020906000905b82829054906101000a900460ff1660ff168152602001906001019060208260000104928301926001038202915080841161107e5790505b50505050509050919050565b60036020528060005260406000206000915054906101000a900460ff1681565b6000806001905060005b83518161ffff1610156111355761111985858361ffff168151811061110c57fe5b60200260200101516105fc565b6111285760009250505061113b565b80806001019150506110eb565b50809150505b92915050565b6111496114b1565b73ffffffffffffffffffffffffffffffffffffffff163373ffffffffffffffffffffffffffffffffffffffff1614806111cb5750600360003373ffffffffffffffffffffffffffffffffffffffff1673ffffffffffffffffffffffffffffffffffffffff16815260200190815260200160002060009054906101000a900460ff165b61120a576040517f08c379a000000000000000000000000000000000000000000000000000000000815260040161120190612afb565b60405180910390fd5b600073ffffffffffffffffffffffffffffffffffffffff168373ffffffffffffffffffffffffffffffffffffffff16146114695760008061124a8461070c565b9150915060008361125c57600061125f565b60015b90506000600460008873ffffffffffffffffffffffffffffffffffffffff1673ffffffffffffffffffffffffffffffffffffffff168152602001908152602001600020805490509050600081850390508161ffff16600014806112c957508461ffff168261ffff16105b156113725760005b8161ffff168161ffff161161137057600460008a73ffffffffffffffffffffffffffffffffffffffff1673ffffffffffffffffffffffffffffffffffffffff168152602001908152602001600020600090806001815401808255809150506001900390600052602060002090602091828204019190069091909190916101000a81548160ff021916908360ff16021790555080806001019150506112d1565b505b8360ff168360ff16901b600460008a73ffffffffffffffffffffffffffffffffffffffff1673ffffffffffffffffffffffffffffffffffffffff1681526020019081526020016000208661ffff16815481106113ca57fe5b90600052602060002090602091828204019190069054906101000a900460ff1617600460008a73ffffffffffffffffffffffffffffffffffffffff1673ffffffffffffffffffffffffffffffffffffffff1681526020019081526020016000208661ffff168154811061143957fe5b90600052602060002090602091828204019190066101000a81548160ff021916908360ff16021790555050505050505b505050565b6002602052816000526040600020818154811061148a57600080fd5b9060005260206000209060209182820401919006915091509054906101000a900460ff1681565b60008060009054906101000a900473ffffffffffffffffffffffffffffffffffffffff16905090565b600060149054906101000a900461ffff1681565b6004602052816000526040600020818154811061150a57600080fd5b9060005260206000209060209182820401919006915091509054906101000a900460ff1681565b611539611f0c565b73ffffffffffffffffffffffffffffffffffffffff166115576114b1565b73ffffffffffffffffffffffffffffffffffffffff16146115e0576040517f08c379a00000000000000000000000000000000000000000000000000000000081526004018080602001828103825260208152602001807f4f776e61626c653a2063616c6c6572206973206e6f7420746865206f776e657281525060200191505060405180910390fd5b80600360008473ffffffffffffffffffffffffffffffffffffffff1673ffffffffffffffffffffffffffffffffffffffff16815260200190815260200160002060006101000a81548160ff0219169083151502179055508015158273ffffffffffffffffffffffffffffffffffffffff167f973bbc2cf6ccb6e84c17881555833ddc6ab07de3420c5bb19022b8553f7a52ae60405160405180910390a35050565b600080600061168f8561070c565b915091506000600260008661ffff1661ffff1681526020019081526020016000208054905090508061ffff16600014806116d057508261ffff168161ffff16105b156116e15760009350505050611743565b60008260ff1660020a600102600260008861ffff1661ffff1681526020019081526020016000208561ffff168154811061171757fe5b90600052602060002090602091828204019190069054906101000a900460ff1660ff1616141593505050505b92915050565b826117526114b1565b73ffffffffffffffffffffffffffffffffffffffff163373ffffffffffffffffffffffffffffffffffffffff1614806117d45750600360003373ffffffffffffffffffffffffffffffffffffffff1673ffffffffffffffffffffffffffffffffffffffff16815260200190815260200160002060009054906101000a900460ff165b806117e557506117e433826105fc565b5b611824576040517f08c379a000000000000000000000000000000000000000000000000000000000815260040161181b90612afb565b60405180910390fd5b6000806118308661070c565b91509150600084611842576000611845565b60015b90506000600260008861ffff1661ffff168152602001908152602001600020805490509050600081850390508161ffff166000148061188b57508461ffff168261ffff16105b156119105760005b8161ffff168161ffff161161190e57600260008a61ffff1661ffff168152602001908152602001600020600090806001815401808255809150506001900390600052602060002090602091828204019190069091909190916101000a81548160ff021916908360ff1602179055508080600101915050611893565b505b8360ff168360ff16901b600260008a61ffff1661ffff1681526020019081526020016000208661ffff168154811061194457fe5b90600052602060002090602091828204019190069054906101000a900460ff1617600260008a61ffff1661ffff1681526020019081526020016000208661ffff168154811061198f57fe5b90600052602060002090602091828204019190066101000a81548160ff021916908360ff1602179055508615158861ffff168a61ffff167f7f1fb3fd473f75b757edf14e8674b7b63f737efeb62ea26522d414698630464560405160405180910390a4505050505050505050565b82611a066114b1565b73ffffffffffffffffffffffffffffffffffffffff163373ffffffffffffffffffffffffffffffffffffffff161480611a885750600360003373ffffffffffffffffffffffffffffffffffffffff1673ffffffffffffffffffffffffffffffffffffffff16815260200190815260200160002060009054906101000a900460ff165b80611a995750611a9833826105fc565b5b611ad8576040517f08c379a0000000000000000000000000000000000000000000000000000000008152600401611acf90612afb565b60405180910390fd5b600080611ae48661070c565b9150915060005b85518161ffff161015611d11576000858261ffff1681518110611b0a57fe5b6020026020010151611b1d576000611b20565b60015b90506000878361ffff1681518110611b3457fe5b602002602001015190506000600260008361ffff1661ffff168152602001908152602001600020805490509050600081870390508161ffff1660001480611b8257508661ffff168261ffff16105b15611c075760005b8161ffff168161ffff1611611c0557600260008561ffff1661ffff168152602001908152602001600020600090806001815401808255809150506001900390600052602060002090602091828204019190069091909190916101000a81548160ff021916908360ff1602179055508080600101915050611b8a565b505b8560ff168460ff16901b600260008561ffff1661ffff1681526020019081526020016000208861ffff1681548110611c3b57fe5b90600052602060002090602091828204019190069054906101000a900460ff1617600260008561ffff1661ffff1681526020019081526020016000208861ffff1681548110611c8657fe5b90600052602060002090602091828204019190066101000a81548160ff021916908360ff160217905550888561ffff1681518110611cc057fe5b602002602001015115158361ffff168c61ffff167f7f1fb3fd473f75b757edf14e8674b7b63f737efeb62ea26522d414698630464560405160405180910390a4505050508080600101915050611aeb565b50505050505050565b611d22611f0c565b73ffffffffffffffffffffffffffffffffffffffff16611d406114b1565b73ffffffffffffffffffffffffffffffffffffffff1614611dc9576040517f08c379a00000000000000000000000000000000000000000000000000000000081526004018080602001828103825260208152602001807f4f776e61626c653a2063616c6c6572206973206e6f7420746865206f776e657281525060200191505060405180910390fd5b600073ffffffffffffffffffffffffffffffffffffffff168173ffffffffffffffffffffffffffffffffffffffff161415611e4f576040517f08c379a0000000000000000000000000000000000000000000000000000000008152600401808060200182810382526026815260200180612e8f6026913960400191505060405180910390fd5b8073ffffffffffffffffffffffffffffffffffffffff1660008054906101000a900473ffffffffffffffffffffffffffffffffffffffff1673ffffffffffffffffffffffffffffffffffffffff167f8be0079c531659141344cd1fd0a4f28419497f9722a3daafe3b4186f6b6457e060405160405180910390a3806000806101000a81548173ffffffffffffffffffffffffffffffffffffffff021916908373ffffffffffffffffffffffffffffffffffffffff16021790555050565b600033905090565b82805482825590600052602060002090601f01602090048101928215611faa5791602002820160005b83821115611f7b57835183826101000a81548160ff021916908360ff1602179055509260200192600101602081600001049283019260010302611f3d565b8015611fa85782816101000a81549060ff0219169055600101602081600001049283019260010302611f7b565b505b509050611fb79190612049565b5090565b828054600181600116156101000203166002900490600052602060002090601f016020900481019282611ff15760008555612038565b82601f1061200a57805160ff1916838001178555612038565b82800160010185558215612038579182015b8281111561203757825182559160200191906001019061201c565b5b5090506120459190612049565b5090565b5b8082111561206257600081600090555060010161204a565b5090565b60008135905061207581612e1b565b92915050565b600082601f83011261208c57600080fd5b813561209f61209a82612bcb565b612b9a565b915081818352602084019350602081019050838560208402820111156120c457600080fd5b60005b838110156120f457816120da8882612066565b8452602084019350602083019250506001810190506120c7565b5050505092915050565b600082601f83011261210f57600080fd5b813561212261211d82612bf7565b612b9a565b9150818183526020840193506020810190508360005b83811015612168578135860161214e88826122ec565b845260208401935060208301925050600181019050612138565b5050505092915050565b600082601f83011261218357600080fd5b813561219661219182612c23565b612b9a565b915081818352602084019350602081019050838560208402820111156121bb57600080fd5b60005b838110156121eb57816121d1888261236f565b8452602084019350602083019250506001810190506121be565b5050505092915050565b600082601f83011261220657600080fd5b813561221961221482612c4f565b612b9a565b9150818183526020840193506020810190508360005b8381101561225f57813586016122458882612384565b84526020840193506020830192505060018101905061222f565b5050505092915050565b600082601f83011261227a57600080fd5b813561228d61228882612c7b565b612b9a565b915081818352602084019350602081019050838560208402820111156122b257600080fd5b60005b838110156122e257816122c888826123d8565b8452602084019350602083019250506001810190506122b5565b5050505092915050565b600082601f8301126122fd57600080fd5b813561231061230b82612ca7565b612b9a565b9150818183526020840193506020810190508385602084028201111561233557600080fd5b60005b83811015612365578161234b8882612402565b845260208401935060208301925050600181019050612338565b5050505092915050565b60008135905061237e81612e32565b92915050565b600082601f83011261239557600080fd5b81356123a86123a382612cd3565b612b9a565b915080825260208301602083018583830111156123c457600080fd5b6123cf838284612dc6565b50505092915050565b6000813590506123e781612e49565b92915050565b6000813590506123fc81612e60565b92915050565b60008135905061241181612e77565b92915050565b60006020828403121561242957600080fd5b600061243784828501612066565b91505092915050565b6000806040838503121561245357600080fd5b600061246185828601612066565b925050602083013567ffffffffffffffff81111561247e57600080fd5b61248a85828601612269565b9150509250929050565b600080604083850312156124a757600080fd5b60006124b585828601612066565b92505060206124c68582860161236f565b9150509250929050565b600080604083850312156124e357600080fd5b60006124f185828601612066565b9250506020612502858286016123d8565b9150509250929050565b60008060006060848603121561252157600080fd5b600061252f86828701612066565b9350506020612540868287016123d8565b92505060406125518682870161236f565b9150509250925092565b6000806040838503121561256e57600080fd5b600061257c85828601612066565b925050602061258d858286016123ed565b9150509250929050565b600080604083850312156125aa57600080fd5b600083013567ffffffffffffffff8111156125c457600080fd5b6125d08582860161207b565b925050602083013567ffffffffffffffff8111156125ed57600080fd5b6125f9858286016120fe565b9150509250929050565b6000806040838503121561261657600080fd5b600083013567ffffffffffffffff81111561263057600080fd5b61263c858286016121f5565b925050602083013567ffffffffffffffff81111561265957600080fd5b6126658582860161207b565b9150509250929050565b6000806040838503121561268257600080fd5b600083013567ffffffffffffffff81111561269c57600080fd5b6126a885828601612269565b925050602083013567ffffffffffffffff8111156126c557600080fd5b6126d1858286016120fe565b9150509250929050565b6000602082840312156126ed57600080fd5b60006126fb848285016123d8565b91505092915050565b60008060006060848603121561271957600080fd5b6000612727868287016123d8565b935050602084013567ffffffffffffffff81111561274457600080fd5b61275086828701612269565b925050604084013567ffffffffffffffff81111561276d57600080fd5b61277986828701612172565b9150509250925092565b60008060006060848603121561279857600080fd5b60006127a6868287016123d8565b935050602084013567ffffffffffffffff8111156127c357600080fd5b6127cf86828701612384565b92505060406127e086828701612066565b9150509250925092565b600080604083850312156127fd57600080fd5b600061280b858286016123d8565b925050602061281c858286016123d8565b9150509250929050565b60008060006060848603121561283b57600080fd5b6000612849868287016123d8565b935050602061285a868287016123d8565b925050604061286b8682870161236f565b9150509250925092565b6000806040838503121561288857600080fd5b6000612896858286016123d8565b92505060206128a7858286016123ed565b9150509250929050565b60006128bd8383612a3e565b60208301905092915050565b6128d281612d63565b82525050565b60006128e382612d13565b6128ed8185612d36565b93506128f883612d03565b8060005b8381101561292957815161291088826128b1565b975061291b83612d29565b9250506001810190506128fc565b5085935050505092915050565b61293f81612d75565b82525050565b600061295082612d1e565b61295a8185612d47565b935061296a818560208601612dd5565b61297381612e0a565b840191505092915050565b600061298982612d1e565b6129938185612d58565b93506129a3818560208601612dd5565b80840191505092915050565b60006129bc600e83612d47565b91507f4e6f7420417574686f72697365640000000000000000000000000000000000006000830152602082019050919050565b60006129fc601383612d47565b91507f43616e6e6f7420626520616464726573732030000000000000000000000000006000830152602082019050919050565b612a3881612d81565b82525050565b612a4781612db9565b82525050565b612a5681612db9565b82525050565b6000612a68828461297e565b915081905092915050565b6000602082019050612a8860008301846128c9565b92915050565b60006020820190508181036000830152612aa881846128d8565b905092915050565b6000602082019050612ac56000830184612936565b92915050565b60006040820190508181036000830152612ae58185612945565b9050612af460208301846128c9565b9392505050565b60006020820190508181036000830152612b14816129af565b9050919050565b60006020820190508181036000830152612b34816129ef565b9050919050565b6000602082019050612b506000830184612a2f565b92915050565b6000604082019050612b6b6000830185612a2f565b612b786020830184612a4d565b9392505050565b6000602082019050612b946000830184612a4d565b92915050565b6000604051905081810181811067ffffffffffffffff82111715612bc157612bc0612e08565b5b8060405250919050565b600067ffffffffffffffff821115612be657612be5612e08565b5b602082029050602081019050919050565b600067ffffffffffffffff821115612c1257612c11612e08565b5b602082029050602081019050919050565b600067ffffffffffffffff821115612c3e57612c3d612e08565b5b602082029050602081019050919050565b600067ffffffffffffffff821115612c6a57612c69612e08565b5b602082029050602081019050919050565b600067ffffffffffffffff821115612c9657612c95612e08565b5b602082029050602081019050919050565b600067ffffffffffffffff821115612cc257612cc1612e08565b5b602082029050602081019050919050565b600067ffffffffffffffff821115612cee57612ced612e08565b5b601f19601f8301169050602081019050919050565b6000819050602082019050919050565b600081519050919050565b600081519050919050565b6000602082019050919050565b600082825260208201905092915050565b600082825260208201905092915050565b600081905092915050565b6000612d6e82612d8f565b9050919050565b60008115159050919050565b600061ffff82169050919050565b600073ffffffffffffffffffffffffffffffffffffffff82169050919050565b6000819050919050565b600060ff82169050919050565b82818337600083830152505050565b60005b83811015612df3578082015181840152602081019050612dd8565b83811115612e02576000848401525b50505050565bfe5b6000601f19601f8301169050919050565b612e2481612d63565b8114612e2f57600080fd5b50565b612e3b81612d75565b8114612e4657600080fd5b50565b612e5281612d81565b8114612e5d57600080fd5b50565b612e6981612daf565b8114612e7457600080fd5b50565b612e8081612db9565b8114612e8b57600080fd5b5056fe4f776e61626c653a206e6577206f776e657220697320746865207a65726f2061646472657373a2646970667358221220dbe3fe77fa8bb5386cca83fec2bc4b432a3ad2c143707b220c7cdf879357479664736f6c63430007050033",
  "linkReferences": {},
  "deployedLinkReferences": {}
}